:02000000502886
:0E0006008312031323088A00220882000800D8
:0E001400073083120313FD00FD0B0E280800B9
:10002200C730831203139F052008F000F00D7010F3
:10003200F00D7010F00D701070089F040A201F154B
:100042001F1D2528000021281E08F100F00183163B
:0A0052001E08F0040030F10408005D
:10005C00113083120313A4000030A5002030A60039
:10006C0000309F01C0309F042109F00070088316F6
:0C007C009F051F179F1783121F14080018
:1000880003208A110A128000840AA20A0319A30A0B
:08009800F003031D44280800D9
:1000A00086202E20831686010812881203308312C0
:1000B000A000112070088312A7007108A800700822
:1000C00086007008F2007108F300F30CF20CF313D1
:1000D000F30CF20CF313F30CF20CF313F30CF20C1D
:1000E000F313720888008230FC00DD30FD00FD0B48
:0E00F0007728FC0B77280000000056287E2899
:10010C0021308400013083120313F0008430A200EC
:08011C000030A300442008009C
:020108000F34B2
:02400E004A2F37
:00000001FF
