:100000000C945D000C9485000C9485000C94850084
:100010000C9485000C9485000C9485000C9485004C
:100020000C9485000C9485000C9485000C9485003C
:100030000C9485000C9485000C9485000C9485002C
:100040000C94DC010C9485000C944C020C94260258
:100050000C9485000C9485000C9485000C9485000C
:100060000C9485000C9485000000000024002700FB
:100070002A0000000000250028002B0004040404CE
:100080000404040402020202020203030303030342
:10009000010204081020408001020408102001021F
:1000A00004081020000000080002010000030407FB
:1000B0000000000000000000320311241FBECFEF3B
:1000C000D8E0DEBFCDBF11E0A0E0B1E0EEECF6E09D
:1000D00002C005900D92A231B107D9F721E0A2E14B
:1000E000B1E001C01D92A93BB207E1F710E0CDE5F8
:1000F000D0E004C02197FE010E945F03CC35D107F8
:10010000C9F70E947E020C9465030C940000EBEA90
:10011000F0E02491E7E9F0E09491E3E8F0E0E49185
:10012000EE23C9F0222339F0233001F1A8F4213065
:1001300019F1223029F1F0E0EE0FFF1FEE58FF4FCA
:10014000A591B4912FB7F894EC91811126C09095A8
:100150009E239C932FBF08952730A9F02830C9F023
:10016000243049F7209180002F7D03C0209180002A
:100170002F7720938000DFCF24B52F7724BDDBCFEE
:1001800024B52F7DFBCF2091B0002F772093B000B6
:10019000D2CF2091B0002F7DF9CF9E2BDACFAF9236
:1001A000BF92CF92DF92EF92FF920F931F93CF9364
:1001B000DF936C017B018B01040F151FEB015E01C6
:1001C000AE18BF08C017D10759F06991D601ED915B
:1001D000FC910190F081E02DC6010995892B79F7FA
:1001E000C501DF91CF911F910F91FF90EF90DF90AC
:1001F000CF90BF90AF900895FC01538D448D252F73
:1002000030E0842F90E0821B930B541710F0CF96B0
:10021000089501970895FC01918D828D981761F0E2
:10022000A28DAE0FBF2FB11D5D968C91928D9F5FF9
:100230009F73928F90E008958FEF9FEF0895FC01D8
:10024000918D828D981731F0828DE80FF11D858D8B
:1002500090E008958FEF9FEF0895FC01918D228D1E
:10026000892F90E0805C9F4F821B91098F739927A3
:10027000089583E191E00E942D0121E0892B09F48A
:1002800020E0822F089580E090E0892B29F00E94E1
:10029000390181110C9400000895FC01A48DA80F70
:1002A000B92FB11DA35ABF4F2C91848D90E00196B8
:1002B0008F739927848FA689B7892C93A089B189D8
:1002C0008C91837080648C93938D848D981306C079
:1002D0000288F389E02D80818F7D80830895EF92DD
:1002E000FF920F931F93CF93DF93EC0181E0888FF0
:1002F0009B8D8C8D98131AC0E889F989808185FFC0
:1003000015C09FB7F894EE89FF896083E889F98961
:1003100080818370806480839FBF81E090E0DF9163
:10032000CF911F910F91FF90EF900895F62E0B8DB6
:1003300010E00F5F1F4F0F731127E02E8C8D8E1171
:100340000CC00FB607FCFACFE889F989808185FFD8
:10035000F5CFCE010E944D01F1CFEB8DEC0FFD2FBB
:10036000F11DE35AFF4FF0829FB7F8940B8FEA8993
:10037000FB8980818062CFCFCF93DF93EC01888DA2
:100380008823B9F0AA89BB89E889F9898C9185FD10
:1003900003C0808186FD0DC00FB607FCF7CF8C919E
:1003A00085FFF2CF808185FFEDCFCE010E944D0108
:1003B000E9CFDF91CF9108951F920F920FB60F9260
:1003C00011242F933F938F939F93AF93BF9380916B
:1003D000B5019091B601A091B701B091B8013091EB
:1003E000B40123E0230F2D3758F50196A11DB11D4F
:1003F0002093B4018093B5019093B601A093B70107
:10040000B093B8018091B0019091B101A091B20177
:10041000B091B3010196A11DB11D8093B0019093DD
:10042000B101A093B201B093B301BF91AF919F917D
:100430008F913F912F910F900FBE0F901F901895A5
:1004400026E8230F0296A11DB11DD2CF1F920F9255
:100450000FB60F9211242F933F934F935F936F9397
:100460007F938F939F93AF93BF93EF93FF9383E11A
:1004700091E00E944D01FF91EF91BF91AF919F914B
:100480008F917F916F915F914F913F912F910F903D
:100490000FBE0F901F9018951F920F920FB60F92DC
:1004A00011242F938F939F93EF93FF93E091230158
:1004B000F09124018081E0912901F0912A0182FDCF
:1004C0001BC0908180912C018F5F8F7320912D0133
:1004D000821741F0E0912C01F0E0ED5EFE4F958F28
:1004E00080932C01FF91EF919F918F912F910F900D
:1004F0000FBE0F901F9018958081F4CF789484B52B
:10050000826084BD84B5816084BD85B5826085BD0F
:1005100085B5816085BD80916E00816080936E009D
:10052000109281008091810082608093810080918F
:100530008100816080938100809180008160809340
:1005400080008091B10084608093B1008091B00000
:1005500081608093B00080917A00846080937A00FB
:1005600080917A00826080937A0080917A00816025
:1005700080937A0080917A00806880937A0010924C
:10058000C100E0912301F091240182E08083E09199
:100590001F01F09120011082E0912101F0912201D0
:1005A0008FEC808310922B01E0912701F0912801BC
:1005B00086E08083E0912501F091260180818061B1
:1005C0008083E0912501F0912601808188608083FD
:1005D000E0912501F0912601808180688083E0917F
:1005E0002501F091260180818F7D8083E7E9F0E08D
:1005F0002491E3E8F0E08491882399F090E0880F5B
:10060000991FFC01E859FF4FA591B491FC01EE58E8
:10061000FF4F859194918FB7F894EC91E22BEC9376
:100620008FBFC0E0D0E083E191E00E942D01181659
:1006300019065CF483E191E00E940B0180931201A2
:10064000813661F481E00E948700209761F30E9467
:100650003901882341F30E940000E5CF8236A9F7D3
:1006600080E0F1CFE3E1F1E01382128288EE93E0C3
:10067000A0E0B0E084839583A683B78384E091E013
:100680009183808385EC90E09587848784EC90E06B
:100690009787868780EC90E0918B808B81EC90E04F
:1006A000938B828B82EC90E0958B848B86EC90E030
:1006B000978B868B118E128E138E148E0895EE0FEB
:0E06C000FF1F0590F491E02D0994F894FFCFF0
:1006CE00000000006F01CF00FC00BC012D010B01EA
:0206DE001F01FA
:00000001FF
