:02000000392B9A
:10000600103083120313FD00FD0B072800000800C3
:10001600083083120313FC002330FD00FD0B11286A
:06002600FC0B112808008C
:04002C0000000800C8
:1000300083120313C01B1E2888131F288817401B18
:100040002328081324280817C01A282888122928CA
:100050008816401A2D2808122E2808163318322820
:10006000081533280811881516208811C0193A2858
:1000700088133B28881740193F2808134028081781
:10008000C0184428881245288816401849280812A4
:100090004A28081633184E2808154F2808118815C5
:1000A00016208811331C56280B20572803200800DF
:1000B000FB14FB1F6228FF30F300F200F100F00098
:0800C000FA0DF20CFF300800FC
:0E00C800F201F101F001F801F301003008002F
:0800D600FA1FF21300300800CC
:1000DE007B15FB1F79280130F300F201F101F001CD
:0800EE00FA0DF20CFF300800CE
:1000F60083120313FB01FA01F9018030F800F10CB9
:10010600F00C031C8F287408F90775080318750F7F
:10011600FA070318FB0A0310F01F97287408FA075A
:1001260075080318750FFB07FB0CFA0CF90CF80C95
:10013600031C82287B08F3007A08F2007908F10094
:060146007808F00008003B
:10014C007C18DC28FC18AD287C19FB28A628A001FB
:10015C007208031DCD287108F2007008F1007808B0
:10016C00F000F801A0157208031DCD287108F200EB
:10017C007008F100F001A01120167208031DCD28A3
:10018C007108F200F101A01572080319EF2820087C
:10019C00F302031D031CF3280310F21BDC28F80DDB
:1001AC00F00DF10DF20DF30BD328F3287B1B701C13
:1001BC00F728F81FF728F00A0319F10A0319F20AB5
:1001CC00031DF728F20CF10CF00CF30A0319FB28B1
:1001DC00F7280130FC006420FE280230FC006F2060
:1001EC00FE280430FC006B20FE280830FC00582050
:0401FC0000000800F7
:1002000083120313BB01BD01BE011030BF000430D7
:100210003E0203183129F03086008030F00070086B
:10022000063E84003F09F00070088000162016206A
:100230000F300605F0007008BC00700803192B2968
:100240003D08BB003C0803192929BC0CBC13BB0AA0
:1002500022290430BE00BF0D3F100430BD07BE0A86
:0802600007293B08F00008002B
:100268007B14FB1F3F29F201FA1FFF30F200F10057
:0A027800F000FA0DF20CFF30080050
:0E0282008312031336088A0035088200080034
:100290008312031333103B08C000182033140800E6
:0E02A000033083120313FD00FD0B54290800E8
:1002AE00831603130711831212150C3097040800DE
:1002BE007129803083120313B7008429C030B70030
:1002CE0084299430B7008429D430B7008429803033
:1002DE00B7008429831203133708013A03196029E2
:1002EE003708023A031965293708033A03196829B2
:1002FE003708043A03196B296E293803F0003708C2
:10030E00F0077008B70033147008C00018203310BF
:0A031E003908C0001820331408004D
:1003280083120313FB01FC01FA0173080319C129A5
:10033800FA13F2178630F302F31BA5290319A5292E
:10034800C329F309F30A08307302031CB229F30026
:10035800F20DF2017308031D0310B929730803197C
:10036800B9290310F20CF30BB5297B1B721CC129A8
:10037800031CC129F20A0319C829F101CB297B14EE
:10038800FB1FCE29F101CE290130FC00D029003015
:10039800FC00D029FF30FC00FC080319D4293421C3
:0603A8007208F0000800DD
:1003AE00803083120313F0007008063E8400FF3085
:0403BE0080000800B3
:1003C20000217008B7000F300605F0000319EB2971
:0A03D2005021E4293708F00008006C
:0C03DC00831203139501171297120800FA
:1003E800831603138811081108128812081388133A
:1003F80083128811081188130813881208120B2019
:100408000B200B20881608168815162088110B203B
:100418008815162088110B208815162088110B20A6
:1004280008128815162088110B20881516208811A7
:10043800881288178815162088110B20881308162B
:1004480088151620881108128815162088110B2087
:1004580088151620881108168815162088110B2073
:100468000812881516208811881708178816081684
:0C0478008815162088110B203314080092
:1004840041218A110A128000840AB50A0319B60AA6
:08049400F003031D422A0800D9
:10049C00602A803083120313B700732AC030B70070
:1004AC00732A9430B700732AD430B700732A803083
:1004BC00B700732A831203133708013A03194F2A22
:1004CC003708023A0319542A3708033A0319572AF2
:1004DC003708043A03195A2A5D2A3803F000370802
:1004EC00F0077008B7007008C00018203310BA016C
:1004FC003A0839078400000803198C2A3A0839078E
:10050C0084000008BB004821BA0A7E2A3314080074
:10051C00831603131208013EF000F1010318F10ACF
:10052C0083123708F400F5017B200630F2007008C6
:10053C00F4007108F50072080319A92AF50CF40CE3
:10054C00F513FF3EA22A0430F1007408F000710884
:10055C000319B42AF00D7010FF3EAE2A303070052E
:10056C00F3007408F0007508F100F10CF00CF113B5
:10057C00F10CF00CF113700895000F30970573080F
:04058C0097040800C8
:10059000831203137008F800FB01FC019E30F30086
:1005A000FA01F201F101F0010230FC00A62008007E
:1005B00083120313FB017308031D770803192F2B04
:1005C00072087606FA007708F3077E30031CEC2ADF
:1005D000F3020318322BEF2AF302031C352B7208A7
:1005E000F8007108FC007008FD00F817F6170310FA
:1005F000F201F101F0011830A0007D1C092B7408F4
:10060000F00775080318750FF10776080318760FC1
:10061000F207F20CF10CF00CF80CFC0CFD0C0310C2
:10062000A00BFD2AF21B192BF80DF00DF10DF20DA8
:10063000F3037B1B701C2B2BF81F2B2BF00A0319C9
:10064000F10A0319F20A031D2B2BF20CF10CF00C2A
:10065000F30A0319322BFA1FF2130030372B013043
:100660006420372B02305820372B04306F200000D5
:02067000080080
:10067200503083120313A1006F30A2007230A30026
:100682006330A4006530A5006E30A6007430A70068
:100692006130A8006A30A9006530AA003A30AB0088
:1006A2002030AC003030AD003030AE002530AF002D
:1006B200B001F4210130C00018200C30C000182015
:1006C2000130B7000130B8002130B9004E221210BB
:1006D2009210C73083169200EE215721D721E121D3
:1006E2007008B20070080319702B952B3730B200D6
:1006F200BD2B3430B200BD2B3130B200BD2B3830AF
:10070200B200BD2B3530B200BD2B3230B200BD2B52
:100712003030B200BD2B3930B200BD2B3630B200C2
:10072200BD2B3330B200BD2B3208013A0319772BAF
:100732003208023A03197A2B3208033A03197D2B45
:100742003208053A0319802B3208063A0319832B23
:100752003208073A0319862B3208083A0319892B03
:100762003208093A03198C2B32080A3A03198F2BE3
:1007720032080B3A0319922B0130B7000D30B80042
:100782003208B9005F2130303202F0007008B10047
:10079200C8220030F4000030F5004C30F6008330FF
:1007A200F700D82294217008B4007008B7008E2296
:0407B200702BDA2BA3
:02400E004A2F37
:00000001FF
