:02000000952841
:10000800FF00030E8301A4000A08A3008A010B1C49
:100018000F2829200B1023088A00240E8300FF0EC6
:040028007F0E09003E
:0E002C008312031322088A00210882000800B4
:10003A0016208A110A128000840AA10A0319A20A48
:08004A00F003031D1D2808004E
:100052000E308312031386000608EE3A031D33287E
:100062000130A0000608DE3A031D39280230A00044
:100072000608BE3A031D3F280330A00006087E3A58
:10008200031D45280430A0000D3086000608ED3A15
:10009200031D4D280530A0000608DD3A031D532834
:1000A2000630A0000608BD3A031D59280730A000FB
:1000B20006087D3A031D5F280830A0000B30860039
:1000C2000608EB3A031D67280930A0000608DB3A50
:1000D200031D6D280A30A0000608BB3A031D7328D1
:1000E2000B30A00006087B3A031D79280C30A000D3
:1000F200073086000608E73A031D81280D30A0006C
:100102000608D73A031D87280E30A0000608B73A22
:10011200031D8D280F30A0000608773A031D93288F
:080122001030A0008601080066
:10012A0083120313A001F03083168600831286011E
:10013A0083168701831287018316811388308B0007
:0A014A00831220088700A528A928C9
:02400E004A2F37
:00000001FF
