:0200000088294D
:0400060000000800EE
:10000A00083083120313FC002330FD00FD0B0B287C
:06001A00FC0B0B2808009E
:10002000103083120313FD00FD0B1428000008009C
:1000300083120313B41B1E2888131F288817341B30
:100040002328081324280817B41A282888122928D6
:100050008816341A2D2808122E2808162918322836
:10006000081533280811881503208811B4193A2877
:1000700088133B28881734193F280813402808178D
:10008000B4184428881245288816341849280812BC
:100090004A28081629184E2808154F2808118815CF
:1000A00003208811291C56280520572810200800F5
:0E00B000033083120313FD00FD0B5C280800D3
:0E00BE008312031328088A0027088200080016
:1000CC008312031329102F08B400182029140800D8
:1000DC0083120313AF01B101B2011030B30004302D
:1000EC00320203189F28F03086008030F000700830
:1000FC00063E84003309F0007008800003200320C2
:10010C000F300605F0007008B0007008031999282C
:10011C003108AF00300803199728B00CB013AF0AA0
:10012C0090280430B200B30D33100430B107B20A7A
:08013C0075282F08F0000800EF
:10014400B428803083120313AB00C728C030AB003F
:10015400C7289430AB00C728D430AB00C728803000
:10016400AB00C728831203132B08013A0319A328F1
:100174002B08023A0319A8282B08033A0319AB28C1
:100184002B08043A0319AE28B1282C03F0002B08DD
:10019400F0077008AB0029147008B4001820291067
:0A01A4002D08B400182029140800EB
:1001AE00803083120313F0007008063E8400FF3087
:0401BE0080000800B5
:1001C200F328803083120313AB000629C030AB0042
:1001D20006299430AB000629D430AB0006298030C2
:1001E200AB000629831203132B08013A0319E228F4
:1001F2002B08023A0319E7282B08033A0319EA28C5
:100202002B08043A0319ED28F0282C03F0002B08E0
:10021200F0077008AB007008B40018202910AE0176
:100222002E082D078400000803191F292E082D0708
:1002320084000008AF006620AE0A112929140800C4
:1002420083160313881108110812881208138813E1
:1002520083128811081188130813881208120520C6
:100262000520052088160816881503208811052008
:100272008815032088110520881503208811052080
:10028200081288150320881105208815032088117B
:1002920088128817881503208811052088130816EC
:1002A200881503208811081288150320881105205B
:1002B2008815032088110816881503208811052047
:1002C200081288150320881188170817881608163F
:0C02D2008815032088110520291408005D
:1002DE006E207008AB000F300605F0000319792967
:0A02EE00582072292B08F0000800C8
:1002F8005F208A110A128000840AA70A0319A80A33
:08030800F003031D7C2908002D
:10031000543083120313A0006530A1006330A200A3
:100320006C30A3006130A4003A30A500A601212161
:100330000130B40018200C30B40018200130AB009C
:100340000130AC002030AD00E120D7206F217008D3
:10035000AA0070080319A629CB293730AA00F3296F
:100360003430AA00F3293130AA00F3293830AA002A
:10037000F3293530AA00F3293230AA00F3293030AE
:10038000AA00F3293930AA00F3293630AA00F3294C
:100390003330AA00F3292A08013A0319AD292A08A3
:1003A000023A0319B0292A08033A0319B3292A0883
:1003B000053A0319B6292A08063A0319B9292A0861
:1003C000073A0319BC292A08083A0319BF292A0841
:1003D000093A0319C2292A080A3A0319C5292A0821
:1003E0000B3A0319C8290230AB000130AC002A08CF
:0803F000AD00A220A629FB29A3
:02400E004A2F37
:00000001FF
