:02000000242FAB
:020006000800F0
:10000800FF00030E83018316D3000A08D2008A0179
:100018008B1C13281D270711831607151228520851
:0C0028008A00530E8300FF0E7F0E0900BB
:1000340083160313141928281F301105F1007108C1
:10004400003A031D28280130F0002928F001080097
:0E0054008316031355088A0054088200080022
:100062008312031350080317960003135108031752
:10007200970003135208031798000313530803173A
:100082009900940195011508123C031D4A28140891
:100092008E3C031C57281A20700803195128572830
:1000A20083120317940A0319950A4428831203172B
:1000B20012301502031D5F288F301402031C6428BE
:1000C2007B30F00097288316031311148316031351
:1000D200111C962883125008510452045304031928
:1000E200952803171608170418041904031D8C28F1
:1000F200831603133C08840005308000840A3A0802
:10010200D4003B08D5002A208A110A12013083123A
:100112000313F0009728013003179602031C97027D
:0E012200031C9802031C99026728F0010800D4
:10013000831203138C1122089300500803179400B4
:100140000313510803179500031352080317960071
:10015000031353080317970083160313141DDB289A
:10016000831250085104520453040319DA28031768
:100170001408150416041704031DD128831603134D
:100180003C08840004308000840A3A08D4003B080C
:10019000D5002A208A110A12013083120313F000BD
:1001A0002229013003179402031C9502031C9602B6
:1001B000031C9702AC288312031350080317940002
:1001C00003135108031795000313520803179600F1
:1001D000031353080317970003138C1919295008A8
:1001E0005104520453040319182903171408150461
:1001F00016041704031D0F29831603133C088400FB
:1002000004308000840A3A08D4003B08D5002A2034
:100210008A110A12013083120313F00022290130DF
:1002200003179402031C9502031C9602031C9702F9
:10023000EC2883160313111B1F29F0012229111525
:060240000230F00008008E
:080246008316031311150800D3
:10024E00FB09FA09F909F809F80A0319F90A031959
:08025E00FA0A0319FB0A08006B
:10026600F030831603136F058312031793003120B2
:100276001A204E308312A20098201A2083120317E8
:1002860013101315931513080313A20098201A20B0
:1002960083120317131113080313A20098201A20C0
:1002A6006F08831203179300930D1310930D131009
:1002B600930D1310930D1310F030930513101315AF
:1002C600931513080313A20098201A20831203170C
:1002D600131113080313A20098201A2023216F0874
:1002E600013A031D80290330FC009730FD00FD0B09
:0C02F6007A29FC0B7A29000000000800A7
:100302007408F8027508031C750FF9027608031CBD
:10031200760FFA027708031C770FFB02F30D073002
:10032200FC00730DF80DF90DFA0DFB0D7408731C2A
:10033200A829F8027508031C750FF9027608031C38
:10034200760FFA027708031C770FFB02B529F8072C
:1003520075080318750FF90776080318760FFA0760
:1003620077080318770FFB07F30DFC0B9229720D28
:10037200F80DF90DFA0DFB0D7408731CCE29F80265
:100382007508031C750FF9027608031C760FFA0232
:100392007708031C770FFB02DB29F807750803189F
:1003A200750FF90776080318760FFA07770803180E
:1003B200770FFB07F20D0730FC00720DF80DF90DF7
:1003C200FA0DFB0D7408721CF429F8027508031C5F
:1003D200750FF9027608031C760FFA027708031CE0
:1003E200770FFB02012AF80775080318750FF90742
:1003F20076080318760FFA0777080318770FFB07BA
:10040200F20DFC0BDE29710DF80DF90DFA0DFB0D45
:100412007408721C1A2AF8027508031C750FF90277
:100422007608031C760FFA027708031C770FFB028B
:10043200272AF80775080318750FF90776080318B5
:10044200760FFA0777080318770FFB07F10D0730CD
:10045200FC00710DF80DF90DFA0DFB0D7408711CFD
:10046200402AF8027508031C750FF9027608031C6E
:10047200760FFA027708031C770FFB024D2AF80762
:1004820075080318750FF90776080318760FFA072F
:1004920077080318770FFB07F10DFC0B2A2A700D62
:1004A200F80DF90DFA0DFB0D7408711C662AF8029D
:1004B2007508031C750FF9027608031C760FFA0201
:1004C2007708031C770FFB02732AF80775080318D5
:1004D200750FF90776080318760FFA0777080318DD
:1004E200770FFB07F00D0730FC00700DF80DF90DCA
:1004F200FA0DFB0D7408701C8C2AF8027508031C97
:10050200750FF9027608031C760FFA027708031CAE
:10051200770FFB02992AF80775080318750FF90778
:1005220076080318760FFA0777080318770FFB0788
:10053200F00DFC0B762A7018AC2A7408F8077508BF
:100542000318750FF90776080318760FFA0777086C
:080552000318770FFB070800F6
:10055A00831203137408003A031DC82A7508003A67
:10056A00031DC82A7608003A031DC82A7708003AEC
:10057A00031DC82AFF30F000FF30F100FF30F200FF
:10058A007F30F300612B83120313FC01F71BFC0A73
:10059A00FD01FB01FA01F901F80173087204710403
:1005AA00700403195C2B73087706A000A01BFD09D1
:1005BA00F71FEA2AF409F509F609F709F40A0319F3
:1005CA00F50A0319F60A0319F70AF31FF72AF009BD
:1005DA00F109F209F309F00A0319F10A0319F20AF7
:1005EA000319F30A73087704A000A01B182B8121B2
:1005FA00FC1B352BFD1F5C2BF009F109F209F309ED
:10060A00F00A0319F10A0319F20A0319F30AF8099D
:10061A00F909FA09FB09F80A0319F90A0319FA0A86
:10062A000319FB0A5C2BF71F2F2BF31B292B7308CB
:10063A00FB007208FA007108F9007008F800F3016B
:10064A00F201F101F001FF2AF301F201F101F001D7
:10065A00F00A0034F309F209F109F009FC17FC2A3F
:10066A00F80A0319F90A0319FA0A0319FB0A7408A2
:10067A007802031DFF2A75087902031DFF2A7608EE
:10068A007A02031DFF2A77087B02031DFF2AFB015A
:10069A00FA01F901F801F00A0319F10A0319F20A39
:1006AA000319F30AF31FFF2AA0012016FF34A00141
:0A06BA007C1C602B2721003E080085
:1006C400831203132230FC00F801F901FA01FB0143
:1006D400FC030319982B0310FB0CFA0CF90CF80C0F
:1006E400F30CF20CF10CF00C031C6A2BFC03031941
:1006F4008A2B7408F80775080318750FF90776082C
:100704000318760FFA0777080318770FFB076E2B89
:100714007408F80775080318750FF90776080318A5
:0E072400760FFA0777080318770FFB07080017
:1007320083120313F8010830FC00700DF80D7408E1
:10074200F8020318A62BF8070310F00DFC0B9E2BE2
:0207520008009D
:10075400D72B831203171103F0007008803E831611
:100764000313EF003321E92B831203171103F00065
:100774007008C03E83160313EF003321E92B831264
:1007840003171103F0007008943E83160313EF005F
:100794003321E92B831203171103F0007008D43EB0
:1007A40083160313EF003321E92B83120317100878
:1007B400013A0319AB2B1008023A0319B62B10089F
:1007C400033A0319C12B1008043A0319CC2B8312E2
:1007D4000317F030120583160313EE0031201A209C
:1007E4004E308312A20098201A206E146E15EE1556
:1007F4006E088312A20098201A206E116E088312CC
:10080400A20098201A2083120317120883160313D8
:10081400EE00EE0D6E10EE0D6E10EE0D6E10EE0D80
:100824006E10F030EE056E146E15EE156E08831220
:10083400A20098201A206E116E088312A20098203C
:060844001A202321080028
:10084A0083120313FB01FA01F9018030F800F10C5D
:10085A00F00C031C392C7408F90775080318750F76
:10086A00FA070318FB0A0310F01F412C7408FA0751
:10087A0075080318750FFB07FB0CFA0CF90CF80C3A
:10088A00031C2C2C7B08F3007A08F2007908F1008B
:06089A007808F0000800E0
:1008A000831603135C088400000803196D2C5A0892
:1008B000831203179000831603135B088312031738
:1008C0009100831603135C08840000088312031749
:0C08D0009200AA23DB0ADC0A502C08006E
:0E08DC008316031355088A0054088200080092
:0E08EA000030831203138C1A0130F000080056
:1008F800831203131A08F100981C842C1812181676
:060908007108F000080078
:0E090E00073083120313FD00FD0B8B2C080035
:10091C0083160313DC0103305C0203189C2C5C0867
:10092C005B07840020308000DC0A912C5C085B079C
:10093C0084008001DC035C085B07DD000A30F400F6
:10094C005A08F00099237808F0003030F00783162D
:10095C005D088400700880000A30F4005A08F0002A
:10096C00992370088316DA007008003A031DBF2C17
:08097C00C12CDC03A12C0800D2
:10098400831603131208013EF000F1010318F10A63
:100994005A08F400F50125240630F2007008F4002A
:1009A4007108F50072080319DC2CF50CF40CF5132E
:1009B400FF3ED52C0430F1007408F00071080319CF
:1009C400E72CF00D7010FF3EE12C30307005F30081
:1009D4007408F0007508F100F10CF00CF113F10C3F
:1009E400F00CF113700895000F3097057308970405
:0209F4000800F9
:1009F600831603135A08F4005B08F5005C08F6003A
:100A06005D08F7005E08F4025F08031C5F0FF5023D
:100A16006008031C600FF6026108031C610FF702F1
:100A26006A08F0006B08F1006C08F2006D08F3002C
:100A36006608F0026708031C670FF1026808031CCA
:100A4600680FF2026908031C690FF302622383161A
:100A56006208F4006308F5006408F6006508F7000C
:100A66005E08F4025F08031C5F0FF5026008031CB2
:100A7600600FF6026108031C610FF702AD228316B0
:100A86006608F00767080318670FF1076808031878
:0E0A9600680FF20769080318690FF3070800DC
:100AA400C730831203139F052108F000F00D701066
:100AB400F00D7010F00D701070089F0487241F153E
:100AC4001F1D662D0000622D1E08F100F001831623
:0A0AD4001E08F0040030F1040800D1
:100ADE0075247008013A031D852D7C247008EF00E3
:100AEE007008313A031D7E2D08143130AB006F08AB
:0E0AFE00303A031D852D08103030AB00080083
:100B0C00831603133408DA003508DB00DC01DD0141
:100B1C003808DE003908DF00E001E1013608E200A8
:100B2C003708E300E401E501E601E701E801E9012A
:100B3C006430EA00EB01EC01ED01FB247008B2001B
:100B4C007108B30039083502031DAE2D3808340284
:100B5C000318B22DB201B3013208DA006B30DB009E
:100B6C008E240230DA000F30DB006B30DC005024B6
:100B7C0083124E08313A031DCB2D03308316DA0055
:100B8C000F30DB002330DC00502483124E08303A47
:100B9C00031DD82D03308316DA000F30DB002C3008
:100BAC00DC00502483122B08313A031DE52D043050
:100BBC008316DA001130DB002730DC00502483125E
:100BCC002B08303A031DF22D04308316DA00113055
:0A0BDC00DB005430DC005024080058
:100BE600013083160313DA000330DB00A030DC008B
:100BF60050240230DA000130DB005830DC0050248B
:100C06000330DA000130DB004030DC0050240430D1
:0E0C1600DA000130DB003030DC005024080032
:100C2400831603139816903083129800831687173F
:100C3400071383128C1E212E1A08F0001B2E0800A5
:100C44008316031335083902031D2A2E340838028B
:100C5400031C312EC030DA00C2243130CE0083169A
:100C640037083502031D382E36083402031C3E2E85
:0A0C7400DA01C2243030CE0008007F
:100C7E001A3083160313BD000030BE000030BF00D3
:100C8E0000303130C0000030C1000030C2000030F2
:100C9E00FF30C900FF30CA000030CB000030FF30FB
:100CAE00CC00FF30CD00FF30CE00FF309830CF00AB
:100CBE000030D0002230D10000302330C600013089
:100CCE00C7000030C80000301413941307168715A0
:080CDE00383083129400080075
:100CE600C33083120313FC00CD30FD00FD0B792EBB
:100CF600FC0B792E31201A204E308312A200982048
:100D06001A202730FC00F530FD00FD0B882EFC0B69
:100D1600882E3030D600D615561556088312A200F6
:100D260098201A20561156088312A20098201A20DD
:100D36002730FC00F530FD00FD0B9F2EFC0B9F2E8F
:100D4600561556088312A20098201A2056115608E6
:100D56008312A20098201A202730FC00F530FD00EF
:100D6600FD0BB32EFC0BB32E561556088312A200AC
:100D760098201A20561156088312A20098201A208D
:100D86001A30FC00F830FD00FD0BC72EFC0BC72EF9
:100D960000002030D600D615561556088312A2003C
:100DA60098201A20561156088312A20098201A205D
:100DB6000D30FC00FB30FD00FD0BDF2EFC0BDF2EA3
:100DC600000000002830EF0033210630EF00332109
:020DD600080013
:100DD8006E248A110A128000840AD40A0319D50ADB
:080DE800F003031DEC2E0800CE
:100DF000831603130711831212150C309704080091
:0C0E0000831203139501171297120800CB
:100E0C00523083160313C3000530C4002130C500D3
:100E1C00003083129F01C0309F044F09F00070080E
:0E0E2C0083169F051F179F1783121F140800BF
:0E0E3A00831603130715F03083129705080086
:100E4800C0278316031308108312081006271210F0
:100E58009210C730831692000027F82690308B0036
:100E68000A30831693003F2673260130EF003321A2
:100E78000C30EF0033211930990018151226F3258C
:100E88008312A10152257008B6007108B70001301D
:100E98008312A10052257008B8007108B900023009
:100EA8008312A10052257008B4007108B5002226EB
:0A0EB80086256F250320442F602FCC
:100F800023308400483083120313F0006630831648
:100F9000D4000730D500EC26A03084001230F000D9
:0E0FA000AE308316D4000730D500EC260800D2
:080ECC0020344F344E34003491
:080ED40020344F344E34003489
:020EDC003034B0
:080EDE004F3446344634003461
:100EE600453453345434413444344F342034563426
:100EF60041344C34563455344C3441343A3400344D
:100F0600453453345434413444344F342034423419
:0C0F16004F344D34423441343A3400343E
:020F2200303469
:020F24000F3488
:080F26000034003400340034F3
:080F2E004F3446344634003410
:100F36004E344934563445344C34203441344334E9
:100F46005434553441344C343A342034303430340B
:060F5600303425340034A4
:100F5C0043344F344E34543452344F344C342034A4
:100F6C00443445342034543441344E3451345534A3
:040F7C0045340034C4
:02400E004A2F37
:00000001FF
