:020000003B289B
:100006008312031320089300831614180C2800008B
:0A001600072883121308F000080009
:10002000FF3083120313A100FF30A200FF30A300B2
:10003000FF300330A4000030A5002030A6000030BF
:100040008316871287110716831294014030831696
:080050009400831294160800CD
:10005800831203132C08F000F1010F307005A00083
:0E0068003030A00403202B08A0000320080065
:1000760010208316081083120814A701A80108107F
:100086002708AB002808AC002C200814A70A03197F
:10009600A80A28080F3C031D52282708FF3C03180E
:0A00A6005628A701A8014228572898
:02400E004A2F37
:00000001FF
