:020000001628C0
:0E0006008312031336088A00350882000800B2
:1000140003208A110A128000840AB50A0319B60A59
:08002400F003031D0A28080087
:10002C003F3083120313A000A1010630A200A301EC
:10003C005B30A400A5014F30A600A7016630A800D4
:10004C00A9016D30AA00AB017D30AC00AD010730C9
:10005C00AE00AF017F30B000B1016730B200B30128
:10006C002430831698009030831298001930831630
:10007C009900880183128801831698184628422813
:10008C008312060899008C1E4D281A08B4003408F7
:10009C00F000F00D70107008203E840000088800FD
:0400AC004228572867
:02400E004A2F37
:00000001FF
