:020000003028A6
:0E0006008312031324088A00230882000800D6
:1000140003208A110A128000840AA30A0319A40A7D
:08002400F003031D0A28080087
:10002C008316031398181C280000162883122A081C
:04003C00990008001F
:10004000831603139816903083129800831687172F
:10005000071383128C1E2F281A08F0002928080085
:1000600083120313A001A101A20119308316990084
:100070001815202086012430A5003B30A800F0018F
:100080000618F00A3030F0077008A0003130A600E2
:100090007008A700A1018030053AF00080302106E9
:1000A0007002031C5B282108253E84000008AA007A
:1000B0001620A10A4B288230FC00DD30FD00FD0B2C
:1000C0005F28FC0B5F2800000000F0018618F00A92
:1000D0003030F0077008A2003230A6007008A70088
:1000E000A1018030053AF000803021067002031C27
:1000F00081282108253E84000008AA001620A10AB4
:1001000071288230FC00DD30FD00FD0B8528FC0BE2
:0A0110008528000000003F288C281D
:02400E004A2F37
:00000001FF
