:020000001628C0
:0E000600831203132D088A002C0882000800C4
:1000140003208A110A128000840AAC0A0319AD0A6B
:08002400F003031D0A28080087
:10002C003F3083120313A0000630A1005B30A20006
:10003C004F30A3006630A4006D30A5007D30A600C3
:10004C000730A7007F30A8006730A900AA01AB01D8
:10005C00073083169F008601870188018312870170
:10006C00880186110612051C3E288611061274287A
:10007C00051E422886115928051D5928851D592809
:10008C00861959288615AB0A2B08203E84000008D7
:10009C0088002B08093A031D5428AB01051D59286B
:1000AC00851D59285428091D5D2806127428851EA3
:1000BC007428091C7428061A74280616AA0A2A0819
:1000CC00203E8400000887002A08093A031D6F2887
:1000DC00AA01851E7428091C74286F2839287528D4
:02400E004A2F37
:00000001FF
