:020000001628C0
:0E000600831203132C088A002B0882000800C6
:1000140003208A110A128000840AAB0A0319AC0A6D
:08002400F003031D0A28080087
:10002C0083120313A0013F30A1000630A2005B3005
:10003C00A3004F30A4006630A5006D30A6007D30C3
:10004C00A7000730A8007F30A9006730AA0007304E
:10005C0083169F008601880183128801861106127F
:10006C00051C3B28861106125D28051E3F288611AB
:10007C005428051D5428851D54288615A00A2008CF
:10008C00213E8400000888002008093A031D4F28EF
:10009C00A001051D5428851D54284F28091D5828DA
:1000AC0006125D28851E5D28091C5D28061636285B
:0200BC005E28BC
:02400E004A2F37
:00000001FF
