:100000000C945D000C9485000C9485000C94850084
:100010000C9485000C9485000C9485000C9485004C
:100020000C9485000C9485000C9485000C94C703F7
:100030000C9485000C9485000C9485000C9485002C
:100040000C9425030C9485000C9495030C946F0379
:100050000C9485000C9485000C9485000C9485000C
:100060000C9485000C9485000000000024002700FB
:100070002A0000000000250028002B0004040404CE
:100080000404040402020202020203030303030342
:10009000010204081020408001020408102001021F
:1000A00004081020000000080002010000030407FB
:1000B0000000000000000000830411241FBECFEFE9
:1000C000D8E0DEBFCDBF11E0A0E0B1E0EAE2FDE0A4
:1000D00002C005900D92A231B107D9F721E0A2E14B
:1000E000B1E001C01D92A33EB207E1F710E0CDE5FB
:1000F000D0E004C02197FE010E948D06CC35D107C7
:10010000C9F70E94E0040C9493060C940000CF926F
:10011000DF92EF92FF92DC01A03282E0B807D4F5C3
:10012000A53BB10514F0A4EBB0E04091E10128E853
:1001300030E0241B310947FD3395220F331F220F76
:10014000331F6901330FEE08FF084091E20128E5F3
:1001500032E0241B310947FD3395220F331F220F54
:10016000331F032E000C440B550B2C193D094E096F
:100170005F09B7FF02C0B0E0A0E00E94480624EB90
:1001800030E040E050E00E941E06C20ED31EE41E86
:10019000F51ED601E091E001EC3080F52091E101FF
:1001A00088E890E0821B910927FD9395880F991F9D
:1001B000880F991FA817B90784F02091E20188E5FC
:1001C00092E0821B910927FD9395880F991F880F54
:1001D000991FA817B9070CF4CD010297880F991F32
:1001E0004FB7F8942E2F30E0F901EE0FFF1FE20F0A
:1001F000F31FE554FE4F928381834FBFFF90EF9032
:10020000DF90CF90089590E0FC01EC55FF4F2491D2
:10021000FC01E057FF4F3491FC01E458FF4FE4919B
:10022000EE23C9F0222339F0233001F1A8F4213064
:1002300019F1223029F1F0E0EE0FFF1FEE58FF4FC9
:10024000A591B4918FB7F894EC91611126C03095C7
:100250003E233C938FBF08952730A9F02830C9F082
:10026000243049F7809180008F7D03C08091800009
:100270008F7780938000DFCF84B58F7784BDDBCF0D
:1002800084B58F7DFBCF8091B0008F778093B000D5
:10029000D2CF8091B0008F7DF9CF3E2BDACF3FB720
:1002A000F89480911A0190911B01A0911C01B091CA
:1002B0001D0126B5A89B05C02F3F19F00196A11D71
:1002C000B11D3FBFBA2FA92F982F8827BC01CD01A0
:1002D000620F711D811D911D42E0660F771F881FFF
:1002E000991F4A95D1F708958F929F92AF92BF922E
:1002F000CF92DF92EF92FF920E944F014B015C017F
:1003000084E6C82ED12CE12CF12C0E944F016819F3
:1003100079098A099B09683E734081059105A8F314
:1003200021E0C21AD108E108F10888EE880E83E0C6
:10033000981EA11CB11CC114D104E104F10429F7D9
:10034000FF90EF90DF90CF90BF90AF909F908F90F5
:100350000895AF92BF92CF92DF92EF92FF920F93E8
:100360001F93CF93DF936C017B018B01040F151F4B
:10037000EB015E01AE18BF08C017D10759F06991B3
:10038000D601ED91FC910190F081E02DC601099517
:10039000892B79F7C501DF91CF911F910F91FF90C4
:1003A000EF90DF90CF90BF90AF900895FC01538DF8
:1003B000448D252F30E0842F90E0821B930B54173F
:1003C00010F0CF96089501970895FC01918D828DCC
:1003D000981761F0A28DAE0FBF2FB11D5D968C9165
:1003E000928D9F5F9F73928F90E008958FEF9FEFA4
:1003F0000895FC01918D828D981731F0828DE80F60
:10040000F11D858D90E008958FEF9FEF0895FC0119
:10041000918D228D892F90E0805C9F4F821B9109E6
:100420008F73992708958EE191E00E94070221E0E1
:10043000892B09F420E0822F089580E090E0892B39
:1004400029F00E94130281110C9400000895FC0110
:10045000A48DA80FB92FB11DA35ABF4F2C91848D25
:1004600090E001968F739927848FA689B7892C9382
:10047000A089B1898C91837080648C93938D848DD5
:10048000981306C00288F389E02D80818F7D8083D8
:100490000895EF92FF920F931F93CF93DF93EC0198
:1004A00081E0888F9B8D8C8D98131AC0E889F9891B
:1004B000808185FF15C09FB7F894EE89FF8960831E
:1004C000E889F98980818370806480839FBF81E09F
:1004D00090E0DF91CF911F910F91FF90EF900895E1
:1004E000F62E0B8D10E00F5F1F4F0F731127E02EBC
:1004F0008C8D8E110CC00FB607FCFACFE889F989F4
:10050000808185FFF5CFCE010E942702F1CFEB8DD0
:10051000EC0FFD2FF11DE35AFF4FF0829FB7F894C7
:100520000B8FEA89FB8980818062CFCFCF93DF93E5
:10053000EC01888D8823B9F0AA89BB89E889F989FB
:100540008C9185FD03C0808186FD0DC00FB607FC30
:10055000F7CF8C9185FFF2CF808185FFEDCFCE0163
:100560000E942702E9CFDF91CF9108958F929F9249
:10057000AF92BF920F931F93CF93DF93CDB7DEB7A8
:10058000A1970FB6F894DEBF0FBECDBF19A24230BF
:1005900008F44AE08E010F5D1F4F842E912CB12C80
:1005A000A12CA50194010E945006E62FB901CA01B1
:1005B000EA3044F5E05DD801EE938D01232B242B26
:1005C000252B79F790E080E0109769F0FD0101900C
:1005D0000020E9F73197AF014A1B5B0BBD018EE1AB
:1005E00091E00E94A901A1960FB6F894DEBF0FBE5C
:1005F000CDBFDF91CF911F910F91BF90AF909F9092
:100600008F900895E95CD7CFCF92DF92EF92FF925F
:10061000CF93DF936B017C016DE28EE191E00E944C
:100620004902EC0166277727CB016C197D098E09F9
:100630009F094AE00E94B6028C0F9D1FDF91CF9167
:10064000FF90EF90DF90CF9008951F920F920FB61A
:100650000F9211242F933F938F939F93AF93BF9348
:100660008091160190911701A0911801B091190184
:100670003091150123E0230F2D3758F50196A11D68
:10068000B11D209315018093160190931701A0933B
:100690001801B093190180911A0190911B01A0914A
:1006A0001C01B0911D010196A11DB11D80931A017D
:1006B00090931B01A0931C01B0931D01BF91AF91BA
:1006C0009F918F913F912F910F900FBE0F901F9090
:1006D000189526E8230F0296A11DB11DD2CF1F92B7
:1006E0000F920FB60F9211242F933F934F935F9366
:1006F0006F937F938F939F93AF93BF93EF93FF93EA
:100700008EE191E00E942702FF91EF91BF91AF919E
:100710009F918F917F916F915F914F913F912F9119
:100720000F900FBE0F901F9018951F920F920FB64B
:100730000F9211242F938F939F93EF93FF93E09148
:100740002E01F0912F018081E0913401F09135016B
:1007500082FD1BC09081809137018F5F8F73209144
:100760003801821741F0E0913701F0E0E25EFE4F80
:10077000958F80933701FF91EF919F918F912F91EA
:100780000F900FBE0F901F9018958081F4CF1F928D
:100790000F920FB60F9211242F933F934F935F93B5
:1007A0006F937F938F939F93AF93BF93CF93DF9379
:1007B000EF93FF9380911201C091DF01D0E087FF9A
:1007C00024C01092850010928400809112018F5FE6
:1007D0008093120180911201082E000C990B8C1746
:1007E0009D0724F4809112018C30C4F18091840023
:1007F00090918500049680349C4908F47AC08091D9
:10080000840090918500049676C080911201082E94
:10081000000C990B8C179D07C4F6E09112018E2FE6
:10082000EE0F990BFC01EE0FFF1FE80FF91FE554C7
:10083000FE4F808186FFC9CFE09112018E2FEE0F0F
:10084000990BFC01EE0FFF1FE80FF91FE554FE4F57
:10085000808160E08F730E940301B7CF20918400F4
:1008600030918500E09112018E2FEE0F990BFC0163
:10087000EE0FFF1FE80FF91FE554FE4F81819281B3
:10088000820F931F9093890080938800E09112015A
:100890008E2FEE0F990BFC01EE0FFF1FE80FF91FD3
:1008A000E554FE4F808186FF11C0E09112018E2F2A
:1008B000EE0F990BFC01EE0FFF1FE80FF91FE55437
:1008C000FE4F808161E08F730E940301FF91EF91E1
:1008D000DF91CF91BF91AF919F918F917F916F9158
:1008E0005F914F913F912F910F900FBE0F901F90EE
:1008F000189580E49CE990938900809388008FEF9D
:1009000080931201E3CF109221011092200188EE12
:1009100093E0A0E0B0E08093220190932301A093A4
:100920002401B093250184E091E090931F0180930E
:100930001E0185EC90E090932B0180932A0184ECBA
:1009400090E090932D0180932C0180EC90E09093A7
:100950002F0180932E0181EC90E0909331018093E0
:10096000300182EC90E0909333018093320186EC69
:1009700090E09093350180933401109237011092EA
:1009800038011092390110923A018091DF018C30C8
:1009900098F491E0980F9093DF018093E00190E04C
:1009A000FC01EE0FFF1FE80FF91FE554FE4F88EB27
:1009B0009BE09283818308958FEF8093E0010895F7
:1009C000789484B5826084BD84B5816084BD85B52A
:1009D000826085BD85B5816085BD80916E00816036
:1009E00080936E00109281008091810082608093DC
:1009F00081008091810081608093810080918000DE
:100A00008160809380008091B10084608093B10008
:100A10008091B00081608093B00080917A00846002
:100A200080937A0080917A00826080937A0080912E
:100A30007A00816080937A0080917A008068809348
:100A40007A001092C100E0912E01F0912F0182E016
:100A50008083E0912A01F0912B011082E0912C011A
:100A6000F0912D018FEC808310923601E0913201DC
:100A7000F091330186E08083E0913001F091310103
:100A8000808180618083E0913001F091310180812B
:100A900088608083E0913001F0913101808180682D
:100AA0008083E0913001F091310180818F7D8083DE
:100AB0008091E0018C3008F068C0EAE9F0E0249110
:100AC000E6E8F0E08491882399F090E0880F991F80
:100AD000FC01E859FF4FA591B491FC01EE58FF4F7E
:100AE000859194918FB7F894EC91E22BEC938FBFA2
:100AF0008091E001282F30E0F901EE0FFF1FE20F97
:100B0000F31FE554FE4F9081907C9A609083109281
:100B1000E1011092E2012CE0622F0E948106829F87
:100B2000B001112430E020E0AB01420F531FFA0165
:100B3000EE0FFF1FE40FF51FE554FE4F908196FD69
:100B400016C02F5F3F4F2C30310571F781110FC058
:100B50001092800082E080938100109285001092B4
:100B60008400B19A80916F00826080936F00E09161
:100B7000E0018E2F90E0FC01EE0FFF1FE80FF91F40
:100B8000E554FE4F80818064808304EB10E080E0B8
:100B9000E82E80E0F82E1092140110921301C091FB
:100BA0001301D0911401C53BD105E4F4CE010E949C
:100BB0008700BE010D2E000C880B990BD7FF0EC0CD
:100BC0000E9404030E94740180911301909114010A
:100BD00001969093140180931301E1CF4AE00E94A3
:100BE000B602F0CF1093140100931301C0911301CA
:100BF000D0911401D7FD16C0CE010E948700BE011E
:100C0000DD0F880B990B4AE00E94B6020E94740126
:100C10008091130190911401019790931401809396
:100C20001301E4CFE114F10409F4B5CF0E941302DB
:100C3000882309F4B0CF0E940000ADCF052E97FBAA
:100C40001EF400940E94350657FD07D00E945006FE
:100C500007FC03D04EF40C94350650954095309522
:100C600021953F4F4F4F5F4F089590958095709518
:100C700061957F4F8F4F9F4F08950E947206A59FE9
:100C8000900DB49F900DA49F800D911D1124089587
:100C9000B7FF0C943D060E943D06821B930B0895FE
:100CA000A1E21A2EAA1BBB1BFD010DC0AA1FBB1F70
:100CB000EE1FFF1FA217B307E407F50720F0A21BE2
:100CC000B30BE40BF50B661F771F881F991F1A944F
:100CD00069F760957095809590959B01AC01BD0179
:100CE000CF010895A29FB001B39FC001A39F700DD3
:100CF000811D1124911DB29F700D811D1124911D24
:100D00000895991B79E004C0991F961708F0961B67
:100D1000881F7A95C9F780950895EE0FFF1F0590FB
:0A0D2000F491E02D0994F894FFCF40
:100D2A00000000004902A901D60196020702E50166
:020D3A00F901BD
:00000001FF
