:02000000342AA0
:1000060083160313141911281F301105F100710806
:10001600003A031D11280130F0001228F0010800F3
:0E002600831203132C088A002B0882000800A6
:080034008316031311150800E7
:10003C00831203138C11200893002708C80028088A
:10004C00C9002908CA002A08CB008316141D55289C
:10005C0083122708280429042A0403195428480861
:10006C0049044A044B04031D4C2832088400043014
:10007C008000840A3008AB003108AC0013208A11D0
:10008C000A12013083120313F0008E280130C802CB
:10009C00031CC902031CCA02031CCB022B288312AB
:1000AC002708C8002808C9002908CA002A08CB005C
:1000BC008C1986282708280429042A040319852862
:1000CC00480849044A044B04031D7D283208840067
:1000DC0004308000840A3008AB003108AC001320D7
:1000EC008A110A12013083120313F0008E2801309A
:1000FC00C802031CC902031CCA02031CCB025E28E3
:10010C008316111B8B28F0018E2811150230F0007C
:02011C000800D9
:10011E00831203132708CA002808CB002908CC0035
:10012E002A08CD00C801C9014908123C031DA128A7
:10013E0048088E3C031CAD28032070080319A8281C
:10014E00AD288312C80A0319C90A9B2883121230DC
:10015E004902031DB4288F304802031CB9287B3096
:10016E00F000E628831611148316111CE52883125D
:10017E002708280429042A040319E4284A084B04F2
:10018E004C044D04031DDC28320884000530800029
:10019E00840A3008AB003108AC0013208A110A1211
:1001AE00013083120313F000E6280130CA02031C4B
:1001BE00CB02031CCC02031CCD02BB28F0010800AD
:1001CE00F030831203134605C7008F2003204E30F4
:1001DE008312A0001E200320831247104715C71557
:1001EE004708A0001E200320831247114708A000D5
:1001FE001E20032083124608C700C70D4710C70DE7
:10020E004710C70D4710C70D4710F030C7054710F0
:10021E004715C7154708A0001E200320831247115B
:10022E004708A0001E2003201A2083124608013A18
:10023E00031D2B290330FC009730FD00FD0B2529F3
:0A024E00FC0B252900000000080049
:0E025800831203132C088A002B088200080072
:10026600F030831203134605C7008F2003204E305B
:100276008312A0001E200320831247144715C715BA
:100286004708A0001E200320831247114708A0003C
:100296001E20032083124608C700C70D4710C70D4E
:1002A6004710C70D4710C70D4710F030C705471454
:1002B6004715C7154708A0001E20032083124711C3
:0C02C6004708A0001E2003201A2008009A
:1002D2008312031342088400000803197829420894
:1002E20084000008C60033218312C20A692908006B
:1002F200C33083120313FC00CD30FD00FD0B7F29B8
:10030200FC0B7F298F2003204E308312A0001E2079
:1003120003202730FC00F530FD00FD0B8E29FC0B7D
:100322008E2930308312C200C21542154208A00045
:100332001E200320831242114208A0001E20032027
:100342002730FC00F530FD00FD0BA529FC0BA5298B
:10035200831242154208A0001E200320831242117C
:100362004208A0001E2003202730FC00F530FD00CB
:10037200FD0BB929FC0BB929831242154208A000D2
:100382001E200320831242114208A0001E200320D7
:100392001A30FC00F830FD00FD0BCD29FC0BCD29F5
:1003A200000020308312C200C21542154208A0008C
:1003B2001E200320831242114208A0001E200320A7
:1003C2000D30FC00FB30FD00FD0BE529FC0BE5299F
:1003D2000000000028308312C600E7200630C60065
:0403E200E720080008
:1003E6002C218A110A128000840AAB0A0319AC0A6E
:0803F600F003031DF3290800C8
:1003FE00033083120313B6000030B7000030B8008C
:10040E0000308F30B3000030B4000030B500003043
:10041E00FF30B900FF30BA000030BB000030FF30B3
:10042E00BF00FF30C000FF30C100FF301E30BC00E7
:10043E000030BD002030BE0000301A30AD0000305C
:10044E00AE000030AF00003083161413941307165D
:0A045E00871538308312940008005F
:100468009E220A30831603139300FF218F20A030A9
:1004780083120313A0001E20103083120313A00060
:100488001E20413083120313A0001E204C3083121B
:100498000313A0001E20443083120313A0001E2063
:1004A8004F3083120313A0001E2020308312031341
:1004B800A0001E20503083120313A0001E204930D4
:1004C80083120313A0001E205A3083120313A000C6
:1004D8001E20413083120313A0001E2052308312C5
:1004E8000313A0001E20523083120313A0001E2005
:1004F8004F3083120313A0001E201A2079210130E7
:10050800C600E7200C30C600E7202130C200692170
:040518008C2A8D2A72
:10053C00213084000A3083120313F0009330AB0097
:08054C000230AC00F3210800AD
:0C0526004C346934733474346F34003486
:080532000034003400340034F1
:02400E004A2F37
:00000001FF
