:020000002F29A6
:0E0006008312031326088A00250882000800D2
:1000140083160313141918281F301105F1007108F1
:10002400003A031D18280130F0001928F0010800D7
:0E0034008312031326088A00250882000800A4
:10004200831203132108BE002208BF002308C00048
:100052002408C100BC01BD013D08123C031D332828
:100062003C088E3C031C3F280A20700803193A28DA
:100072003F288312BC0A0319BD0A2D2883121230AD
:100082003D02031D46288F303C02031C4B287B3067
:10009200F0007828831611148316111C7728831216
:1000A2002108220423042404031976283E083F046D
:1000B20040044104031D6E28350884000530800089
:1000C200840A3308A5003408A6001A208A110A12ED
:1000D200013083120313F00078280130BE02031CA2
:1000E200BF02031CC002031CC1024D28F00108001C
:0800F200831603131115080029
:1000FA000A3083120313B6000030B7000030B8008C
:10010A0000302130B9000030BA000030BB000030A6
:10011A00FF30B000FF30B1000030B2000030FF30D5
:10012A00A700FF30A800FF30A900FF30B230AA00B4
:10013A000030AB002030AC0000307930AD00003028
:10014A00AE000030AF000030831614139413071664
:0A015A008715383083129400080066
:10016400831203138C11200893002108BC00220879
:10017400BD002308BE002408BF008316141DE9280F
:10018400831221082204230424040319E8283C08C8
:100194003D043E043F04031DE02835088400043078
:1001A4008000840A3308A5003408A6001A208A11A6
:1001B4000A12013083120313F00022290130BC0219
:1001C400031CBD02031CBE02031CBF02BF28831212
:1001D4002108BC002208BD002308BE002408BF007B
:1001E4008C191A2921082204230424040319192927
:1001F4003C083D043E043F04031D112935088400D6
:1002040004308000840A3308A5003408A6001A20AC
:100214008A110A12013083120313F00022290130DB
:10022400BC02031CBD02031CBE02031CBF02F22855
:100234008316111B1F29F001222911150230F00029
:020244000800B0
:1002460003208A110A128000840AA50A0319A60A45
:08025600F003031D2329080039
:10025E0088210A308316031393007D202120A030BD
:10026E0083120313A000B220203083120313A000C8
:10027E00B220413083120313A000B2204C308312FF
:10028E000313A000B220443083120313A000B22047
:10029E004F3083120313A000B220203083120313B9
:1002AE00A000B220503083120313A000B2204930B8
:1002BE0083120313A000B2205A3083120313A0003E
:1002CE00B220413083120313A000B22052308312A9
:1002DE000313A000B220523083120313A000B220E9
:0E02EE004F3083120313A000B22079207D2927
:1003100021308400043083120313F0008330A500E1
:080320000130A60023210800B2
:0803060000340034003400341F
:02400E004A2F37
:00000001FF
