:02000000342AA0
:1000060083160313141911281F301105F100710806
:10001600003A031D11280130F0001228F0010800F3
:0E0026008312031331088A003008820008009C
:080034008316031311150800E7
:10003C00831203138C11200893002C08CD002D087B
:10004C00CE002E08CF002F08D0008316141D552883
:10005C0083122C082D042E042F04031954284D0848
:10006C004E044F045004031D4C2837088400043000
:10007C008000840A3508B0003608B10013208A11BC
:10008C000A12013083120313F0008E280130CD02C6
:10009C00031CCE02031CCF02031CD0022B2883129C
:1000AC002C08CD002D08CE002E08CF002F08D00034
:1000BC008C1986282C082D042E042F04031985284E
:1000CC004D084E044F045004031D7D28370884004E
:1000DC0004308000840A3508B0003608B1001320C3
:1000EC008A110A12013083120313F0008E2801309A
:1000FC00CD02031CCE02031CCF02031CD0025E28CF
:10010C008316111B8B28F0018E2811150230F0007C
:02011C000800D9
:10011E00831203132C08CF002D08D0002E08D10017
:10012E002F08D200CD01CE014E08123C031DA1288E
:10013E004D088E3C031CAD28032070080319A82817
:10014E00AD288312CD0A0319CE0A9B2883121230D2
:10015E004E02031DB4288F304D02031CB9287B308C
:10016E00F000E628831611148316111CE52883125D
:10017E002C082D042E042F040319E4284F085004D4
:10018E0051045204031DDC2837088400053080001A
:10019E00840A3508B0003608B10013208A110A12FD
:1001AE00013083120313F000E6280130CF02031C46
:1001BE00D002031CD102031CD202BB28F00108009E
:1001CE00F030831203134B05CC008F2003204E30EA
:1001DE008312A0001E20032083124C104C15CC1548
:1001EE004C08A0001E20032083124C114C08A000C6
:1001FE001E20032083124B08CC00CC0D4C10CC0DCE
:10020E004C10CC0D4C10CC0D4C10F030CC054C10CD
:10021E004C15CC154C08A0001E20032083124C1147
:10022E004C08A0001E2003201A2083124B08013A0E
:10023E00031D2B290330FC009730FD00FD0B2529F3
:0A024E00FC0B252900000000080049
:0E0258008312031331088A0030088200080068
:10026600F030831203134B05CC008F2003204E3051
:100276008312A0001E20032083124C144C15CC15AB
:100286004C08A0001E20032083124C114C08A0002D
:100296001E20032083124B08CC00CC0D4C10CC0D35
:1002A6004C10CC0D4C10CC0D4C10F030CC054C1431
:1002B6004C15CC154C08A0001E20032083124C11AF
:0C02C6004C08A0001E2003201A20080095
:1002D200831203134708840000080319782947088A
:1002E20084000008CB0033218312C70A6929080061
:1002F200C33083120313FC00CD30FD00FD0B7F29B8
:10030200FC0B7F298F2003204E308312A0001E2079
:1003120003202730FC00F530FD00FD0B8E29FC0B7D
:100322008E2930308312C700C71547154708A00031
:100332001E200320831247114708A0001E2003201D
:100342002730FC00F530FD00FD0BA529FC0BA5298B
:10035200831247154708A0001E200320831247116D
:100362004708A0001E2003202730FC00F530FD00C6
:10037200FD0BB929FC0BB929831247154708A000C8
:100382001E200320831247114708A0001E200320CD
:100392001A30FC00F830FD00FD0BCD29FC0BCD29F5
:1003A200000020308312C700C71547154708A00078
:1003B2001E200320831247114708A0001E2003209D
:1003C2000D30FC00FB30FD00FD0BE529FC0BE5299F
:1003D2000000000028308312CB00E7200630CB005B
:0403E200E720080008
:1003E6002C218A110A128000840AB00A0319B10A64
:0803F600F003031DF3290800C8
:1003FE00033083120313BB000030BC000030BD007D
:10040E0000308F30B8000030B9000030BA00003034
:10041E00FF30BE00FF30BF000030C0000030FF30A4
:10042E00C400FF30C500FF30C600FF301E30C100D3
:10043E000030C2002030C30000301A30B20000304D
:10044E00B3000030B4000030831614139413071653
:0A045E00871538308312940008005F
:100468005A220A30831603139300FF2179210130A1
:10047800CB00E7200C30CB00E7202130C7006921F2
:04048800442A452A93
:1004B400213084000F3083120313F0004B30B0005E
:0804C4000230B100F321080031
:1004960048346F346C34613420346D3475346E34C2
:0604A60064346F340034E1
:0804AC00003400340034003478
:02400E004A2F37
:00000001FF
