:02000000722C60
:10000600083083120313FC002330FD00FD0B092882
:06001600FC0B09280800A4
:10001C00FB14FB1F1828FF30F300F200F100F00076
:08002C00FA0DF20CFF30080090
:08003400FA1FF213003008006E
:04003C0000000800B8
:0E004000F201F101F001F801F30100300800B7
:10004E007B15FB1F31280130F300F201F101F001A5
:08005E00FA0DF20CFF3008005E
:10006600103083120313FD00FD0B37280000080033
:100076007C187128FC1842287C1990283B28A0017E
:100086007208031D62287108F2007008F1007808F2
:10009600F000F801A0157208031D62287108F2002D
:1000A6007008F100F001A01120167208031D6228E5
:1000B6007108F200F101A0157208031984282008BE
:1000C600F302031D031C88280310F21B7128F80D88
:1000D600F00DF10DF20DF30B682888287B1B701CC0
:1000E6008C28F81F8C28F00A0319F10A0319F20A62
:1000F600031D8C28F20CF10CF00CF30A031990285E
:100106008C280130FC00202093280230FC00272098
:1001160093280430FC001A2093280830FC000E2097
:0401260000000800CD
:10012A00A0017208031DAA287108F2007008F100E4
:10013A00F001A0157208031DAA287108F200F10146
:10014A00A011201672080319B8282008F302031D0B
:10015A00031CBC280310F21BC028F00DF10DF20D90
:10016A00F30BB028BC280130FC002020C328023041
:0E017A00FC002720C3280430FC001A200800D7
:1001880083120313CD1BCA288611CB2886154D1B55
:10019800CF280611D0280615CD1AD4288610D528C0
:1001A80086144D1AD9280610DA2806143518DE28C0
:1001B8000616DF28061286161E208612CD19E62896
:1001C8008611E72886154D19EB280611EC28061527
:1001D800CD18F0288610F12886144D18F528061039
:1001E800F62806143518FA280616FB28061286166D
:1001F8001E208612351C02290320032933200800FB
:0E020800831203132D088A002C0882000800C0
:0E021600073083120313FD00FD0B0F290800B3
:06022400FB15FF3008008D
:10022A008312031372087606A000F801F901730815
:10023A007702031C38297708FD007308F7007D0848
:10024A00F3007608FD007208F6007D08F2007508D2
:10025A00FD007108F5007D08F1007408FD007008C2
:10026A00F4007D08F00077080319B1297208FA0032
:10027A00F217F61777087302F70003196B2908308B
:10028A007702031C6129F7007408F9007508F40065
:10029A007608F500F60108307702031C6129F70099
:1002AA007408F9007508F400F50108307702031C98
:1002BA0061297A08F200B129770803196B2903101A
:1002CA00F60CF50CF40CF90CF70B6429A01F78292D
:1002DA00F909F409F509F609F90A0319F40A0319DF
:1002EA00F50A0319F60A7908F80774080318740F4F
:1002FA00F00775080318750FF10776080318760FCB
:10030A00F207A01B9129031CA129F20CF10CF00C95
:10031A00F80CF30FA129AD290318A529F809F0094A
:10032A00F109F209F80A0319F00A0319F10A031983
:10033A00F20A8030FA06A9290130FC003B20B329D1
:10034A000230FC003B20B3290430FC009520B3297D
:10035A000830FC000E20B3290030FC000000080021
:10036A008312031335104C08CD00C420351408003D
:10037A007B14FB1FC829F201FA1FFF30F200F100BB
:0A038A00F000FA0DF20CFF3008003D
:10039400831203137008F8007108F000F101F201F0
:1003A400F301FB01FC019630F300FA017008F1003F
:0C03B4007808F000F801F2019520080024
:0C03C000831203138030F606152108009C
:1003CC0083120313F801F9011030FC00710DF80DC4
:1003DC00F90D7408F8027508031C750FF90203185F
:1003EC00FE297408F80775080318750FF907031030
:0A03FC00F00DF10DFC0BEC290800D8
:1004060083120313FB017308031D770803195A2A85
:1004160072087606FA007708F3077E30031C172A5F
:10042600F30203185D2A1A2AF302031C602A7208D3
:10043600F8007108FC007008FD00F817F6170310A5
:10044600F201F101F0011830A0007D1C342A740875
:10045600F00775080318750FF10776080318760F6D
:10046600F207F20CF10CF00CF80CFC0CFD0C03106E
:10047600A00B282AF21B442AF80DF00DF10DF20DFF
:10048600F3037B1B701C562AF81F562AF00A031921
:10049600F10A0319F20A031D562AF20CF10CF00CAC
:1004A600F30A03195D2AFA1FF2130030622A01309B
:1004B6002020622A02300E20622A04302720000003
:0204C60008002C
:1004C800831203137408003A031D7F2A7508003A43
:1004D800031D7F2A7608003A031D7F2A7708003A11
:1004E800031D7F2AFF30F000FF30F1007F30F2005B
:1004F800FF30F3001A2B83120313770803190E2B0E
:1005080073080319112B720876068039FA00F2175E
:10051800F617A0017208F8007108FC007008FD00C9
:100528007408FD027508031C750FFC027608031C8D
:10053800760FF802F801FC01FD01031CAA2A03103A
:10054800F20CF10CF00CF80C0130A0007708F30263
:10055800031CB42A7E302007F3070318142BB92A8A
:100568007E302007F307031C172B1830FA07FD0D00
:10057800FC0DF80DF00DF10DF20DA00D7408F00250
:100588007508031C750FF1027608031C760FF2023A
:10059800760DA004201CD22A7D14DD2A7408F007E9
:1005A80075080318750FF10776080318760AF2071D
:1005B8007D10FA031F307A05031DBB2A7B1B7D1CA7
:1005C800042B0310F00DF10DF20DA00D7408F002CC
:1005D8007508031C750FF1027608031C760FF202EA
:1005E800760D20040139FD070318FC0A0319F80ADF
:1005F800031D042BF80CFC0CFD0CF30A0319142B37
:10060800FA1FF8137808F2007C08F1007D08F00062
:100618000030192B01301221192B02302020192B00
:0E06280004300E20192B083027200000080097
:10063600C730831203139F052108F000F00D7010D8
:10064600F00D7010F00D701070089F040B211F152F
:100656001F1D2F2B00002B2B1E08F100F001831607
:0A0666001E08F0040030F104080043
:1006700083160313861206120610861006118611C1
:1006800083128612061286110611861006100320A8
:10069000032003208614061486161E2086120320CB
:1006A00086161E208612032086161E208612032020
:1006B000061086161E208612032086161E2086121D
:1006C0008610861586161E208612032086110614B3
:1006D00086161E208612061086161E2086120320FD
:1006E00086161E208612061486161E2086120320E9
:1006F000061086161E208612861506158614061408
:0C07000086161E20861203203514080007
:10070C00982B803083120313C800AB2BC030C80069
:10071C00AB2B9430C800AB2BD430C800AB2B803043
:10072C00C800AB2B831203134808013A0319872B1B
:10073C004808023A03198C2B4808033A03198F2BEB
:10074C004808043A0319922B952B4903F0004808EA
:10075C00F0077008C8007008CD00C4203510CB011C
:10076C004B084A07840000080319C42B4B084A079E
:10077C0084000008CC00B521CB0AB62B3514080038
:10078C0004218A110A128000840AAC0A0319AD0AEA
:08079C00F003031DC62B080049
:1007A40083120313FB01FC01FA0173080319112CD2
:1007B400F2178E30F302F31BE22B0319E22B142CF5
:1007C400F309F30A08307302031CF72BF300F10D4D
:1007D4007208F100F20108307302031CF72BF10DCB
:1007E400F1017308031D0310FF2B73080319FF2B7A
:1007F4000310F20CF10CF30BFA2B7B1B711C092C6C
:10080400031C092CF10A0319F20AF21B202CFA1F0B
:10081400232CF209F109F10A0319F20A232CF2013B
:10082400F101232C7B14FB1F262CF201FA1F262C2A
:10083400FF30F200F100FA0DF20C262C0130FC001E
:10084400282C0030FC00282CFF30FC00FC08031985
:0E0854002C2CBD217108F0007208F100080084
:1008620083120313FB01FA01F9018030F800F10C45
:10087200F00C031C452C7408F90775080318750F52
:10088200FA070318FB0A0310F01F4D2C7408FA072D
:1008920075080318750FFB07FB0CFA0CF90CF80C22
:1008A200031C382C7B08F3007A08F2007908F10067
:0608B2007808F0000800C8
:1008B8001B3083120313B2000330B3002130B4009D
:1008C80000309F01C0309F042B09F0007008831688
:0C08D8009F051F179F1783121F140800B4
:1008E4006A255C2438230130CD00C4200C30CD00AF
:1008F400C4200130C8000130C9002230CA00862358
:10090400A1011B23CA210030F4000030F50020307F
:10091400F6008130F70003220030F4000030F500C7
:100924000030F6008930F70064227008C2007108B4
:10093400C3007208C4007308C5004208AE0043082F
:10094400AF004408B0004508B1004208F000430875
:10095400F1004408F2004508F300D2237008C600F1
:100964007108C7004608BA004708BB004208F000F7
:100974004308F1004408F2004508F3000030F40095
:100984000030F5007A30F6008830F7000322700852
:10099400C2007108C3007208C4007308C500460889
:1009A400F0004708F100E830F4000330F50031248A
:1009B400CA217008F4007108F5007208F600730883
:1009C400F7004208F0004308F1004408F20045082B
:1009D400F300E0217008B6007108B7007208B8008F
:1009E4007308B900D2237008C2007108C30042081A
:1009F400BC004308BD0030304607BE006430F4003C
:100A04000030F5004208F0004308F100E6210A3006
:100A1400F4000030F500E6217808F0007908F100D0
:100A240030307007BF000A30F4000030F50042088F
:100A3400F0004308F100E6210A30F4000030F5002C
:100A4400E6217808F0007908F10030307007C00022
:100A54000A30F4000030F5004208F0004308F100C9
:100A6400E6217808F0007908F10030307007C10001
:100A7400C030CD00C4203E08CC00B5212E30CC00BF
:100A8400B5213F08CC00B5214008CC00B521410870
:100A9400CC00B5210230FB000430FC00BA30FD006C
:100AA400FD0B522DFC0B522DFB0B522D0000822C02
:020AB4005A2DB9
:100AD400223084000A3083120313F0006030AC002B
:080AE4000530AD00C623080037
:100AC00056346F346C34743461346A3465343A3477
:020AD0000034F0
:020AD2000F34DF
:02400E004A2F37
:00000001FF
