:020000000129D4
:10000600103083120313FD00FD0B072800000800C3
:10001600083083120313FC002330FD00FD0B11286A
:06002600FC0B112808008C
:04002C0000000800C8
:1000300083120313B51B1E2886111F288615351B36
:100040002328061124280615B51A282886102928E1
:100050008614351A2D2806102E2806142F1832283B
:10006000061633280612861616208612B5193A2867
:1000700086113B28861535193F280611402806159C
:10008000B5184428861045288614351849280610C6
:100090004A2806142F184E2806164F2806128616D0
:1000A000162086122F1C56280B20572803200800E4
:0E00B000831203132E088A002D088200080018
:1000BE00831203132F103408B50018202F140800D4
:1000CE008316031386120612061086100611861169
:1000DE0083128612061286110611861006100B2048
:1000EE000B200B20861406148616162086120B2063
:1000FE008616162086120B208616162086120B20C8
:10010E0006108616162086120B20861616208612CC
:10011E00861086158616162086120B20861106145A
:10012E0086161620861206108616162086120B20AC
:10013E0086161620861206148616162086120B2098
:10014E0006108616162086128615061586140614B7
:0C015E008616162086120B202F140800B5
:10016A00C728803083120313B000DA28C030B000E9
:10017A00DA289430B000DA28D430B000DA28803097
:10018A00B000DA28831203133008013A0319B6289B
:10019A003008023A0319BB283008033A0319BE286B
:1001AA003008043A0319C128C4283103F000300882
:1001BA00F0077008B0007008B50018202F10B301BE
:1001CA0033083207840000080319F328330832077A
:1001DA0084000008B4005F20B30AE5282F14080041
:1001EA0058208A110A128000840AAD0A0319AE0A3D
:0801FA00F003031DF5280800C5
:10020200413083120313A0006C30A1006430A200BD
:100212006F30A3002030A4005030A5006930A60042
:100222007A30A7006130A8007230A9007230AA00AB
:100232006F30AB00AC0167200130B50018200C30E4
:10024200B50018200130B0000330B1002030B200F8
:06025200B5202A292B292A
:02400E004A2F37
:00000001FF
