:02000000AE2828
:10000600103083120313FD00FD0B072800000800C3
:10001600083083120313FC002330FD00FD0B11286A
:06002600FC0B112808008C
:04002C0000000800C8
:1000300083120313A61B1E2886111F288615261B54
:100040002328061124280615A61A282886102928F0
:100050008614261A2D2806102E2806142018322859
:10006000061633280612861616208612A6193A2876
:1000700086113B28861526193F28061140280615AB
:10008000A6184428861045288614261849280610E4
:100090004A28061420184E2806164F2806128616DF
:1000A00016208612201C56280B20572803200800F3
:1000B0008312031320102508A6001820201408001E
:1000C0008316031386120612061086100611861177
:1000D00083128612061286110611861006100B2056
:1000E0000B200B20861406148616162086120B2071
:1000F0008616162086120B208616162086120B20D6
:1001000006108616162086120B20861616208612DA
:10011000861086158616162086120B208611061468
:1001200086161620861206108616162086120B20BA
:1001300086161620861206148616162086120B20A6
:1001400006108616162086128615061586140614C5
:0C0150008616162086120B2020140800D2
:10015C0060200130A60018200C30A6001820C030FA
:10016C00A6001820A101A20100302202031DC02804
:10017C000A3021020318DA2830302107A500582054
:10018C001030A60018200230FB000430FC00BA30FE
:10019C00FD00FD0BCF28FC0BCF28FB0BCF2800005C
:0C01AC00A10A0319A20ABA28B528DB2812
:02400E004A2F37
:00000001FF
